{
	"CalculatorContract.sol": {
		"Calculator": {
			"abi": [
				{
					"inputs": [
						{
							"internalType": "uint256",
							"name": "a",
							"type": "uint256"
						},
						{
							"internalType": "uint256",
							"name": "b",
							"type": "uint256"
						}
					],
					"name": "add",
					"outputs": [],
					"stateMutability": "nonpayable",
					"type": "function"
				},
				{
					"inputs": [
						{
							"internalType": "uint256",
							"name": "a",
							"type": "uint256"
						},
						{
							"internalType": "uint256",
							"name": "b",
							"type": "uint256"
						}
					],
					"name": "div",
					"outputs": [],
					"stateMutability": "nonpayable",
					"type": "function"
				},
				{
					"inputs": [],
					"name": "getResult",
					"outputs": [
						{
							"internalType": "uint256",
							"name": "x",
							"type": "uint256"
						}
					],
					"stateMutability": "view",
					"type": "function"
				},
				{
					"inputs": [
						{
							"internalType": "uint256",
							"name": "a",
							"type": "uint256"
						},
						{
							"internalType": "uint256",
							"name": "b",
							"type": "uint256"
						}
					],
					"name": "mul",
					"outputs": [],
					"stateMutability": "nonpayable",
					"type": "function"
				},
				{
					"inputs": [
						{
							"internalType": "uint256",
							"name": "a",
							"type": "uint256"
						},
						{
							"internalType": "uint256",
							"name": "b",
							"type": "uint256"
						}
					],
					"name": "sub",
					"outputs": [],
					"stateMutability": "nonpayable",
					"type": "function"
				}
			],
			"devdoc": {
				"kind": "dev",
				"methods": {},
				"version": 1
			},
			"evm": {
				"assembly": "    /* \"CalculatorContract.sol\":25:516  contract Calculator {... */\n  mstore(0x40, 0x80)\n  callvalue\n  dup1\n  iszero\n  tag_1\n  jumpi\n  0x00\n  dup1\n  revert\ntag_1:\n  pop\n  dataSize(sub_0)\n  dup1\n  dataOffset(sub_0)\n  0x00\n  codecopy\n  0x00\n  return\nstop\n\nsub_0: assembly {\n        /* \"CalculatorContract.sol\":25:516  contract Calculator {... */\n      mstore(0x40, 0x80)\n      callvalue\n      dup1\n      iszero\n      tag_1\n      jumpi\n      0x00\n      dup1\n      revert\n    tag_1:\n      pop\n      jumpi(tag_2, lt(calldatasize, 0x04))\n      shr(0xe0, calldataload(0x00))\n      dup1\n      0x771602f7\n      eq\n      tag_3\n      jumpi\n      dup1\n      0xa391c15b\n      eq\n      tag_4\n      jumpi\n      dup1\n      0xb67d77c5\n      eq\n      tag_5\n      jumpi\n      dup1\n      0xc8a4ac9c\n      eq\n      tag_6\n      jumpi\n      dup1\n      0xde292789\n      eq\n      tag_7\n      jumpi\n    tag_2:\n      0x00\n      dup1\n      revert\n        /* \"CalculatorContract.sol\":67:135  function add(uint256 a, uint256 b) public {... */\n    tag_3:\n      tag_8\n      0x04\n      dup1\n      calldatasize\n      sub\n      dup2\n      add\n      swap1\n      tag_9\n      swap2\n      swap1\n      tag_10\n      jump\t// in\n    tag_9:\n      tag_11\n      jump\t// in\n    tag_8:\n      stop\n        /* \"CalculatorContract.sol\":289:430  function div(uint256 a, uint256 b) public {... */\n    tag_4:\n      tag_12\n      0x04\n      dup1\n      calldatasize\n      sub\n      dup2\n      add\n      swap1\n      tag_13\n      swap2\n      swap1\n      tag_10\n      jump\t// in\n    tag_13:\n      tag_14\n      jump\t// in\n    tag_12:\n      stop\n        /* \"CalculatorContract.sol\":141:209  function sub(uint256 a, uint256 b) public {... */\n    tag_5:\n      tag_15\n      0x04\n      dup1\n      calldatasize\n      sub\n      dup2\n      add\n      swap1\n      tag_16\n      swap2\n      swap1\n      tag_10\n      jump\t// in\n    tag_16:\n      tag_17\n      jump\t// in\n    tag_15:\n      stop\n        /* \"CalculatorContract.sol\":215:283  function mul(uint256 a, uint256 b) public {... */\n    tag_6:\n      tag_18\n      0x04\n      dup1\n      calldatasize\n      sub\n      dup2\n      add\n      swap1\n      tag_19\n      swap2\n      swap1\n      tag_10\n      jump\t// in\n    tag_19:\n      tag_20\n      jump\t// in\n    tag_18:\n      stop\n        /* \"CalculatorContract.sol\":436:514  function getResult() public view returns (uint256 x) {... */\n    tag_7:\n      tag_21\n      tag_22\n      jump\t// in\n    tag_21:\n      mload(0x40)\n      tag_23\n      swap2\n      swap1\n      tag_24\n      jump\t// in\n    tag_23:\n      mload(0x40)\n      dup1\n      swap2\n      sub\n      swap1\n      return\n        /* \"CalculatorContract.sol\":67:135  function add(uint256 a, uint256 b) public {... */\n    tag_11:\n        /* \"CalculatorContract.sol\":127:128  b */\n      dup1\n        /* \"CalculatorContract.sol\":123:124  a */\n      dup3\n        /* \"CalculatorContract.sol\":123:128  a + b */\n      tag_26\n      swap2\n      swap1\n      tag_27\n      jump\t// in\n    tag_26:\n        /* \"CalculatorContract.sol\":119:120  c */\n      0x00\n        /* \"CalculatorContract.sol\":119:128  c = a + b */\n      dup2\n      swap1\n      sstore\n      pop\n        /* \"CalculatorContract.sol\":67:135  function add(uint256 a, uint256 b) public {... */\n      pop\n      pop\n      jump\t// out\n        /* \"CalculatorContract.sol\":289:430  function div(uint256 a, uint256 b) public {... */\n    tag_14:\n        /* \"CalculatorContract.sol\":353:354  0 */\n      0x00\n        /* \"CalculatorContract.sol\":349:350  b */\n      dup2\n        /* \"CalculatorContract.sol\":349:354  b > 0 */\n      gt\n        /* \"CalculatorContract.sol\":341:403  require(b > 0, \"The second parameter should be larger than 0\") */\n      tag_29\n      jumpi\n      mload(0x40)\n      0x08c379a000000000000000000000000000000000000000000000000000000000\n      dup2\n      mstore\n      0x04\n      add\n      tag_30\n      swap1\n      tag_31\n      jump\t// in\n    tag_30:\n      mload(0x40)\n      dup1\n      swap2\n      sub\n      swap1\n      revert\n    tag_29:\n        /* \"CalculatorContract.sol\":422:423  b */\n      dup1\n        /* \"CalculatorContract.sol\":418:419  a */\n      dup3\n        /* \"CalculatorContract.sol\":418:423  a / b */\n      tag_32\n      swap2\n      swap1\n      tag_33\n      jump\t// in\n    tag_32:\n        /* \"CalculatorContract.sol\":414:415  c */\n      0x00\n        /* \"CalculatorContract.sol\":414:423  c = a / b */\n      dup2\n      swap1\n      sstore\n      pop\n        /* \"CalculatorContract.sol\":289:430  function div(uint256 a, uint256 b) public {... */\n      pop\n      pop\n      jump\t// out\n        /* \"CalculatorContract.sol\":141:209  function sub(uint256 a, uint256 b) public {... */\n    tag_17:\n        /* \"CalculatorContract.sol\":201:202  b */\n      dup1\n        /* \"CalculatorContract.sol\":197:198  a */\n      dup3\n        /* \"CalculatorContract.sol\":197:202  a - b */\n      tag_35\n      swap2\n      swap1\n      tag_36\n      jump\t// in\n    tag_35:\n        /* \"CalculatorContract.sol\":193:194  c */\n      0x00\n        /* \"CalculatorContract.sol\":193:202  c = a - b */\n      dup2\n      swap1\n      sstore\n      pop\n        /* \"CalculatorContract.sol\":141:209  function sub(uint256 a, uint256 b) public {... */\n      pop\n      pop\n      jump\t// out\n        /* \"CalculatorContract.sol\":215:283  function mul(uint256 a, uint256 b) public {... */\n    tag_20:\n        /* \"CalculatorContract.sol\":275:276  b */\n      dup1\n        /* \"CalculatorContract.sol\":271:272  a */\n      dup3\n        /* \"CalculatorContract.sol\":271:276  a * b */\n      tag_38\n      swap2\n      swap1\n      tag_39\n      jump\t// in\n    tag_38:\n        /* \"CalculatorContract.sol\":267:268  c */\n      0x00\n        /* \"CalculatorContract.sol\":267:276  c = a * b */\n      dup2\n      swap1\n      sstore\n      pop\n        /* \"CalculatorContract.sol\":215:283  function mul(uint256 a, uint256 b) public {... */\n      pop\n      pop\n      jump\t// out\n        /* \"CalculatorContract.sol\":436:514  function getResult() public view returns (uint256 x) {... */\n    tag_22:\n        /* \"CalculatorContract.sol\":478:487  uint256 x */\n      0x00\n        /* \"CalculatorContract.sol\":506:507  c */\n      dup1\n      sload\n        /* \"CalculatorContract.sol\":499:507  return c */\n      swap1\n      pop\n        /* \"CalculatorContract.sol\":436:514  function getResult() public view returns (uint256 x) {... */\n      swap1\n      jump\t// out\n        /* \"#utility.yul\":88:205   */\n    tag_42:\n        /* \"#utility.yul\":197:198   */\n      0x00\n        /* \"#utility.yul\":194:195   */\n      dup1\n        /* \"#utility.yul\":187:199   */\n      revert\n        /* \"#utility.yul\":334:411   */\n    tag_44:\n        /* \"#utility.yul\":371:378   */\n      0x00\n        /* \"#utility.yul\":400:405   */\n      dup2\n        /* \"#utility.yul\":389:405   */\n      swap1\n      pop\n        /* \"#utility.yul\":334:411   */\n      swap2\n      swap1\n      pop\n      jump\t// out\n        /* \"#utility.yul\":417:539   */\n    tag_45:\n        /* \"#utility.yul\":490:514   */\n      tag_59\n        /* \"#utility.yul\":508:513   */\n      dup2\n        /* \"#utility.yul\":490:514   */\n      tag_44\n      jump\t// in\n    tag_59:\n        /* \"#utility.yul\":483:488   */\n      dup2\n        /* \"#utility.yul\":480:515   */\n      eq\n        /* \"#utility.yul\":470:533   */\n      tag_60\n      jumpi\n        /* \"#utility.yul\":529:530   */\n      0x00\n        /* \"#utility.yul\":526:527   */\n      dup1\n        /* \"#utility.yul\":519:531   */\n      revert\n        /* \"#utility.yul\":470:533   */\n    tag_60:\n        /* \"#utility.yul\":417:539   */\n      pop\n      jump\t// out\n        /* \"#utility.yul\":545:684   */\n    tag_46:\n        /* \"#utility.yul\":591:596   */\n      0x00\n        /* \"#utility.yul\":629:635   */\n      dup2\n        /* \"#utility.yul\":616:636   */\n      calldataload\n        /* \"#utility.yul\":607:636   */\n      swap1\n      pop\n        /* \"#utility.yul\":645:678   */\n      tag_62\n        /* \"#utility.yul\":672:677   */\n      dup2\n        /* \"#utility.yul\":645:678   */\n      tag_45\n      jump\t// in\n    tag_62:\n        /* \"#utility.yul\":545:684   */\n      swap3\n      swap2\n      pop\n      pop\n      jump\t// out\n        /* \"#utility.yul\":690:1164   */\n    tag_10:\n        /* \"#utility.yul\":758:764   */\n      0x00\n        /* \"#utility.yul\":766:772   */\n      dup1\n        /* \"#utility.yul\":815:817   */\n      0x40\n        /* \"#utility.yul\":803:812   */\n      dup4\n        /* \"#utility.yul\":794:801   */\n      dup6\n        /* \"#utility.yul\":790:813   */\n      sub\n        /* \"#utility.yul\":786:818   */\n      slt\n        /* \"#utility.yul\":783:902   */\n      iszero\n      tag_64\n      jumpi\n        /* \"#utility.yul\":821:900   */\n      tag_65\n      tag_42\n      jump\t// in\n    tag_65:\n        /* \"#utility.yul\":783:902   */\n    tag_64:\n        /* \"#utility.yul\":941:942   */\n      0x00\n        /* \"#utility.yul\":966:1019   */\n      tag_66\n        /* \"#utility.yul\":1011:1018   */\n      dup6\n        /* \"#utility.yul\":1002:1008   */\n      dup3\n        /* \"#utility.yul\":991:1000   */\n      dup7\n        /* \"#utility.yul\":987:1009   */\n      add\n        /* \"#utility.yul\":966:1019   */\n      tag_46\n      jump\t// in\n    tag_66:\n        /* \"#utility.yul\":956:1019   */\n      swap3\n      pop\n        /* \"#utility.yul\":912:1029   */\n      pop\n        /* \"#utility.yul\":1068:1070   */\n      0x20\n        /* \"#utility.yul\":1094:1147   */\n      tag_67\n        /* \"#utility.yul\":1139:1146   */\n      dup6\n        /* \"#utility.yul\":1130:1136   */\n      dup3\n        /* \"#utility.yul\":1119:1128   */\n      dup7\n        /* \"#utility.yul\":1115:1137   */\n      add\n        /* \"#utility.yul\":1094:1147   */\n      tag_46\n      jump\t// in\n    tag_67:\n        /* \"#utility.yul\":1084:1147   */\n      swap2\n      pop\n        /* \"#utility.yul\":1039:1157   */\n      pop\n        /* \"#utility.yul\":690:1164   */\n      swap3\n      pop\n      swap3\n      swap1\n      pop\n      jump\t// out\n        /* \"#utility.yul\":1170:1288   */\n    tag_47:\n        /* \"#utility.yul\":1257:1281   */\n      tag_69\n        /* \"#utility.yul\":1275:1280   */\n      dup2\n        /* \"#utility.yul\":1257:1281   */\n      tag_44\n      jump\t// in\n    tag_69:\n        /* \"#utility.yul\":1252:1255   */\n      dup3\n        /* \"#utility.yul\":1245:1282   */\n      mstore\n        /* \"#utility.yul\":1170:1288   */\n      pop\n      pop\n      jump\t// out\n        /* \"#utility.yul\":1294:1516   */\n    tag_24:\n        /* \"#utility.yul\":1387:1391   */\n      0x00\n        /* \"#utility.yul\":1425:1427   */\n      0x20\n        /* \"#utility.yul\":1414:1423   */\n      dup3\n        /* \"#utility.yul\":1410:1428   */\n      add\n        /* \"#utility.yul\":1402:1428   */\n      swap1\n      pop\n        /* \"#utility.yul\":1438:1509   */\n      tag_71\n        /* \"#utility.yul\":1506:1507   */\n      0x00\n        /* \"#utility.yul\":1495:1504   */\n      dup4\n        /* \"#utility.yul\":1491:1508   */\n      add\n        /* \"#utility.yul\":1482:1488   */\n      dup5\n        /* \"#utility.yul\":1438:1509   */\n      tag_47\n      jump\t// in\n    tag_71:\n        /* \"#utility.yul\":1294:1516   */\n      swap3\n      swap2\n      pop\n      pop\n      jump\t// out\n        /* \"#utility.yul\":1522:1702   */\n    tag_48:\n        /* \"#utility.yul\":1570:1647   */\n      0x4e487b7100000000000000000000000000000000000000000000000000000000\n        /* \"#utility.yul\":1567:1568   */\n      0x00\n        /* \"#utility.yul\":1560:1648   */\n      mstore\n        /* \"#utility.yul\":1667:1671   */\n      0x11\n        /* \"#utility.yul\":1664:1665   */\n      0x04\n        /* \"#utility.yul\":1657:1672   */\n      mstore\n        /* \"#utility.yul\":1691:1695   */\n      0x24\n        /* \"#utility.yul\":1688:1689   */\n      0x00\n        /* \"#utility.yul\":1681:1696   */\n      revert\n        /* \"#utility.yul\":1708:2013   */\n    tag_27:\n        /* \"#utility.yul\":1748:1751   */\n      0x00\n        /* \"#utility.yul\":1767:1787   */\n      tag_74\n        /* \"#utility.yul\":1785:1786   */\n      dup3\n        /* \"#utility.yul\":1767:1787   */\n      tag_44\n      jump\t// in\n    tag_74:\n        /* \"#utility.yul\":1762:1787   */\n      swap2\n      pop\n        /* \"#utility.yul\":1801:1821   */\n      tag_75\n        /* \"#utility.yul\":1819:1820   */\n      dup4\n        /* \"#utility.yul\":1801:1821   */\n      tag_44\n      jump\t// in\n    tag_75:\n        /* \"#utility.yul\":1796:1821   */\n      swap3\n      pop\n        /* \"#utility.yul\":1955:1956   */\n      dup3\n        /* \"#utility.yul\":1887:1953   */\n      0xffffffffffffffffffffffffffffffffffffffffffffffffffffffffffffffff\n        /* \"#utility.yul\":1883:1957   */\n      sub\n        /* \"#utility.yul\":1880:1881   */\n      dup3\n        /* \"#utility.yul\":1877:1958   */\n      gt\n        /* \"#utility.yul\":1874:1981   */\n      iszero\n      tag_76\n      jumpi\n        /* \"#utility.yul\":1961:1979   */\n      tag_77\n      tag_48\n      jump\t// in\n    tag_77:\n        /* \"#utility.yul\":1874:1981   */\n    tag_76:\n        /* \"#utility.yul\":2005:2006   */\n      dup3\n        /* \"#utility.yul\":2002:2003   */\n      dup3\n        /* \"#utility.yul\":1998:2007   */\n      add\n        /* \"#utility.yul\":1991:2007   */\n      swap1\n      pop\n        /* \"#utility.yul\":1708:2013   */\n      swap3\n      swap2\n      pop\n      pop\n      jump\t// out\n        /* \"#utility.yul\":2019:2188   */\n    tag_49:\n        /* \"#utility.yul\":2103:2114   */\n      0x00\n        /* \"#utility.yul\":2137:2143   */\n      dup3\n        /* \"#utility.yul\":2132:2135   */\n      dup3\n        /* \"#utility.yul\":2125:2144   */\n      mstore\n        /* \"#utility.yul\":2177:2181   */\n      0x20\n        /* \"#utility.yul\":2172:2175   */\n      dup3\n        /* \"#utility.yul\":2168:2182   */\n      add\n        /* \"#utility.yul\":2153:2182   */\n      swap1\n      pop\n        /* \"#utility.yul\":2019:2188   */\n      swap3\n      swap2\n      pop\n      pop\n      jump\t// out\n        /* \"#utility.yul\":2194:2425   */\n    tag_50:\n        /* \"#utility.yul\":2334:2368   */\n      0x546865207365636f6e6420706172616d657465722073686f756c64206265206c\n        /* \"#utility.yul\":2330:2331   */\n      0x00\n        /* \"#utility.yul\":2322:2328   */\n      dup3\n        /* \"#utility.yul\":2318:2332   */\n      add\n        /* \"#utility.yul\":2311:2369   */\n      mstore\n        /* \"#utility.yul\":2403:2417   */\n      0x6172676572207468616e20300000000000000000000000000000000000000000\n        /* \"#utility.yul\":2398:2400   */\n      0x20\n        /* \"#utility.yul\":2390:2396   */\n      dup3\n        /* \"#utility.yul\":2386:2401   */\n      add\n        /* \"#utility.yul\":2379:2418   */\n      mstore\n        /* \"#utility.yul\":2194:2425   */\n      pop\n      jump\t// out\n        /* \"#utility.yul\":2431:2797   */\n    tag_51:\n        /* \"#utility.yul\":2573:2576   */\n      0x00\n        /* \"#utility.yul\":2594:2661   */\n      tag_81\n        /* \"#utility.yul\":2658:2660   */\n      0x2c\n        /* \"#utility.yul\":2653:2656   */\n      dup4\n        /* \"#utility.yul\":2594:2661   */\n      tag_49\n      jump\t// in\n    tag_81:\n        /* \"#utility.yul\":2587:2661   */\n      swap2\n      pop\n        /* \"#utility.yul\":2670:2763   */\n      tag_82\n        /* \"#utility.yul\":2759:2762   */\n      dup3\n        /* \"#utility.yul\":2670:2763   */\n      tag_50\n      jump\t// in\n    tag_82:\n        /* \"#utility.yul\":2788:2790   */\n      0x40\n        /* \"#utility.yul\":2783:2786   */\n      dup3\n        /* \"#utility.yul\":2779:2791   */\n      add\n        /* \"#utility.yul\":2772:2791   */\n      swap1\n      pop\n        /* \"#utility.yul\":2431:2797   */\n      swap2\n      swap1\n      pop\n      jump\t// out\n        /* \"#utility.yul\":2803:3222   */\n    tag_31:\n        /* \"#utility.yul\":2969:2973   */\n      0x00\n        /* \"#utility.yul\":3007:3009   */\n      0x20\n        /* \"#utility.yul\":2996:3005   */\n      dup3\n        /* \"#utility.yul\":2992:3010   */\n      add\n        /* \"#utility.yul\":2984:3010   */\n      swap1\n      pop\n        /* \"#utility.yul\":3056:3065   */\n      dup2\n        /* \"#utility.yul\":3050:3054   */\n      dup2\n        /* \"#utility.yul\":3046:3066   */\n      sub\n        /* \"#utility.yul\":3042:3043   */\n      0x00\n        /* \"#utility.yul\":3031:3040   */\n      dup4\n        /* \"#utility.yul\":3027:3044   */\n      add\n        /* \"#utility.yul\":3020:3067   */\n      mstore\n        /* \"#utility.yul\":3084:3215   */\n      tag_84\n        /* \"#utility.yul\":3210:3214   */\n      dup2\n        /* \"#utility.yul\":3084:3215   */\n      tag_51\n      jump\t// in\n    tag_84:\n        /* \"#utility.yul\":3076:3215   */\n      swap1\n      pop\n        /* \"#utility.yul\":2803:3222   */\n      swap2\n      swap1\n      pop\n      jump\t// out\n        /* \"#utility.yul\":3228:3408   */\n    tag_52:\n        /* \"#utility.yul\":3276:3353   */\n      0x4e487b7100000000000000000000000000000000000000000000000000000000\n        /* \"#utility.yul\":3273:3274   */\n      0x00\n        /* \"#utility.yul\":3266:3354   */\n      mstore\n        /* \"#utility.yul\":3373:3377   */\n      0x12\n        /* \"#utility.yul\":3370:3371   */\n      0x04\n        /* \"#utility.yul\":3363:3378   */\n      mstore\n        /* \"#utility.yul\":3397:3401   */\n      0x24\n        /* \"#utility.yul\":3394:3395   */\n      0x00\n        /* \"#utility.yul\":3387:3402   */\n      revert\n        /* \"#utility.yul\":3414:3599   */\n    tag_33:\n        /* \"#utility.yul\":3454:3455   */\n      0x00\n        /* \"#utility.yul\":3471:3491   */\n      tag_87\n        /* \"#utility.yul\":3489:3490   */\n      dup3\n        /* \"#utility.yul\":3471:3491   */\n      tag_44\n      jump\t// in\n    tag_87:\n        /* \"#utility.yul\":3466:3491   */\n      swap2\n      pop\n        /* \"#utility.yul\":3505:3525   */\n      tag_88\n        /* \"#utility.yul\":3523:3524   */\n      dup4\n        /* \"#utility.yul\":3505:3525   */\n      tag_44\n      jump\t// in\n    tag_88:\n        /* \"#utility.yul\":3500:3525   */\n      swap3\n      pop\n        /* \"#utility.yul\":3544:3545   */\n      dup3\n        /* \"#utility.yul\":3534:3569   */\n      tag_89\n      jumpi\n        /* \"#utility.yul\":3549:3567   */\n      tag_90\n      tag_52\n      jump\t// in\n    tag_90:\n        /* \"#utility.yul\":3534:3569   */\n    tag_89:\n        /* \"#utility.yul\":3591:3592   */\n      dup3\n        /* \"#utility.yul\":3588:3589   */\n      dup3\n        /* \"#utility.yul\":3584:3593   */\n      div\n        /* \"#utility.yul\":3579:3593   */\n      swap1\n      pop\n        /* \"#utility.yul\":3414:3599   */\n      swap3\n      swap2\n      pop\n      pop\n      jump\t// out\n        /* \"#utility.yul\":3605:3796   */\n    tag_36:\n        /* \"#utility.yul\":3645:3649   */\n      0x00\n        /* \"#utility.yul\":3665:3685   */\n      tag_92\n        /* \"#utility.yul\":3683:3684   */\n      dup3\n        /* \"#utility.yul\":3665:3685   */\n      tag_44\n      jump\t// in\n    tag_92:\n        /* \"#utility.yul\":3660:3685   */\n      swap2\n      pop\n        /* \"#utility.yul\":3699:3719   */\n      tag_93\n        /* \"#utility.yul\":3717:3718   */\n      dup4\n        /* \"#utility.yul\":3699:3719   */\n      tag_44\n      jump\t// in\n    tag_93:\n        /* \"#utility.yul\":3694:3719   */\n      swap3\n      pop\n        /* \"#utility.yul\":3738:3739   */\n      dup3\n        /* \"#utility.yul\":3735:3736   */\n      dup3\n        /* \"#utility.yul\":3732:3740   */\n      lt\n        /* \"#utility.yul\":3729:3763   */\n      iszero\n      tag_94\n      jumpi\n        /* \"#utility.yul\":3743:3761   */\n      tag_95\n      tag_48\n      jump\t// in\n    tag_95:\n        /* \"#utility.yul\":3729:3763   */\n    tag_94:\n        /* \"#utility.yul\":3788:3789   */\n      dup3\n        /* \"#utility.yul\":3785:3786   */\n      dup3\n        /* \"#utility.yul\":3781:3790   */\n      sub\n        /* \"#utility.yul\":3773:3790   */\n      swap1\n      pop\n        /* \"#utility.yul\":3605:3796   */\n      swap3\n      swap2\n      pop\n      pop\n      jump\t// out\n        /* \"#utility.yul\":3802:4150   */\n    tag_39:\n        /* \"#utility.yul\":3842:3849   */\n      0x00\n        /* \"#utility.yul\":3865:3885   */\n      tag_97\n        /* \"#utility.yul\":3883:3884   */\n      dup3\n        /* \"#utility.yul\":3865:3885   */\n      tag_44\n      jump\t// in\n    tag_97:\n        /* \"#utility.yul\":3860:3885   */\n      swap2\n      pop\n        /* \"#utility.yul\":3899:3919   */\n      tag_98\n        /* \"#utility.yul\":3917:3918   */\n      dup4\n        /* \"#utility.yul\":3899:3919   */\n      tag_44\n      jump\t// in\n    tag_98:\n        /* \"#utility.yul\":3894:3919   */\n      swap3\n      pop\n        /* \"#utility.yul\":4087:4088   */\n      dup2\n        /* \"#utility.yul\":4019:4085   */\n      0xffffffffffffffffffffffffffffffffffffffffffffffffffffffffffffffff\n        /* \"#utility.yul\":4015:4089   */\n      div\n        /* \"#utility.yul\":4012:4013   */\n      dup4\n        /* \"#utility.yul\":4009:4090   */\n      gt\n        /* \"#utility.yul\":4004:4005   */\n      dup3\n        /* \"#utility.yul\":3997:4006   */\n      iszero\n        /* \"#utility.yul\":3990:4007   */\n      iszero\n        /* \"#utility.yul\":3986:4091   */\n      and\n        /* \"#utility.yul\":3983:4114   */\n      iszero\n      tag_99\n      jumpi\n        /* \"#utility.yul\":4094:4112   */\n      tag_100\n      tag_48\n      jump\t// in\n    tag_100:\n        /* \"#utility.yul\":3983:4114   */\n    tag_99:\n        /* \"#utility.yul\":4142:4143   */\n      dup3\n        /* \"#utility.yul\":4139:4140   */\n      dup3\n        /* \"#utility.yul\":4135:4144   */\n      mul\n        /* \"#utility.yul\":4124:4144   */\n      swap1\n      pop\n        /* \"#utility.yul\":3802:4150   */\n      swap3\n      swap2\n      pop\n      pop\n      jump\t// out\n\n    auxdata: 0xa26469706673582212201c2999d584607d664000c737f145521c0c5e422529b30388b6d3525d67be11fa64736f6c634300080f0033\n}\n",
				"bytecode": {
					"linkReferences": {},
					"object": "608060405234801561001057600080fd5b5061047f806100206000396000f3fe608060405234801561001057600080fd5b50600436106100575760003560e01c8063771602f71461005c578063a391c15b14610078578063b67d77c514610094578063c8a4ac9c146100b0578063de292789146100cc575b600080fd5b610076600480360381019061007191906101c9565b6100ea565b005b610092600480360381019061008d91906101c9565b610100565b005b6100ae60048036038101906100a991906101c9565b610159565b005b6100ca60048036038101906100c591906101c9565b61016f565b005b6100d4610185565b6040516100e19190610218565b60405180910390f35b80826100f69190610262565b6000819055505050565b60008111610143576040517f08c379a000000000000000000000000000000000000000000000000000000000815260040161013a9061033b565b60405180910390fd5b808261014f919061038a565b6000819055505050565b808261016591906103bb565b6000819055505050565b808261017b91906103ef565b6000819055505050565b60008054905090565b600080fd5b6000819050919050565b6101a681610193565b81146101b157600080fd5b50565b6000813590506101c38161019d565b92915050565b600080604083850312156101e0576101df61018e565b5b60006101ee858286016101b4565b92505060206101ff858286016101b4565b9150509250929050565b61021281610193565b82525050565b600060208201905061022d6000830184610209565b92915050565b7f4e487b7100000000000000000000000000000000000000000000000000000000600052601160045260246000fd5b600061026d82610193565b915061027883610193565b9250827fffffffffffffffffffffffffffffffffffffffffffffffffffffffffffffffff038211156102ad576102ac610233565b5b828201905092915050565b600082825260208201905092915050565b7f546865207365636f6e6420706172616d657465722073686f756c64206265206c60008201527f6172676572207468616e20300000000000000000000000000000000000000000602082015250565b6000610325602c836102b8565b9150610330826102c9565b604082019050919050565b6000602082019050818103600083015261035481610318565b9050919050565b7f4e487b7100000000000000000000000000000000000000000000000000000000600052601260045260246000fd5b600061039582610193565b91506103a083610193565b9250826103b0576103af61035b565b5b828204905092915050565b60006103c682610193565b91506103d183610193565b9250828210156103e4576103e3610233565b5b828203905092915050565b60006103fa82610193565b915061040583610193565b9250817fffffffffffffffffffffffffffffffffffffffffffffffffffffffffffffffff048311821515161561043e5761043d610233565b5b82820290509291505056fea26469706673582212201c2999d584607d664000c737f145521c0c5e422529b30388b6d3525d67be11fa64736f6c634300080f0033",
					"opcodes": "PUSH1 0x80 PUSH1 0x40 MSTORE CALLVALUE DUP1 ISZERO PUSH2 0x10 JUMPI PUSH1 0x0 DUP1 REVERT JUMPDEST POP PUSH2 0x47F DUP1 PUSH2 0x20 PUSH1 0x0 CODECOPY PUSH1 0x0 RETURN INVALID PUSH1 0x80 PUSH1 0x40 MSTORE CALLVALUE DUP1 ISZERO PUSH2 0x10 JUMPI PUSH1 0x0 DUP1 REVERT JUMPDEST POP PUSH1 0x4 CALLDATASIZE LT PUSH2 0x57 JUMPI PUSH1 0x0 CALLDATALOAD PUSH1 0xE0 SHR DUP1 PUSH4 0x771602F7 EQ PUSH2 0x5C JUMPI DUP1 PUSH4 0xA391C15B EQ PUSH2 0x78 JUMPI DUP1 PUSH4 0xB67D77C5 EQ PUSH2 0x94 JUMPI DUP1 PUSH4 0xC8A4AC9C EQ PUSH2 0xB0 JUMPI DUP1 PUSH4 0xDE292789 EQ PUSH2 0xCC JUMPI JUMPDEST PUSH1 0x0 DUP1 REVERT JUMPDEST PUSH2 0x76 PUSH1 0x4 DUP1 CALLDATASIZE SUB DUP2 ADD SWAP1 PUSH2 0x71 SWAP2 SWAP1 PUSH2 0x1C9 JUMP JUMPDEST PUSH2 0xEA JUMP JUMPDEST STOP JUMPDEST PUSH2 0x92 PUSH1 0x4 DUP1 CALLDATASIZE SUB DUP2 ADD SWAP1 PUSH2 0x8D SWAP2 SWAP1 PUSH2 0x1C9 JUMP JUMPDEST PUSH2 0x100 JUMP JUMPDEST STOP JUMPDEST PUSH2 0xAE PUSH1 0x4 DUP1 CALLDATASIZE SUB DUP2 ADD SWAP1 PUSH2 0xA9 SWAP2 SWAP1 PUSH2 0x1C9 JUMP JUMPDEST PUSH2 0x159 JUMP JUMPDEST STOP JUMPDEST PUSH2 0xCA PUSH1 0x4 DUP1 CALLDATASIZE SUB DUP2 ADD SWAP1 PUSH2 0xC5 SWAP2 SWAP1 PUSH2 0x1C9 JUMP JUMPDEST PUSH2 0x16F JUMP JUMPDEST STOP JUMPDEST PUSH2 0xD4 PUSH2 0x185 JUMP JUMPDEST PUSH1 0x40 MLOAD PUSH2 0xE1 SWAP2 SWAP1 PUSH2 0x218 JUMP JUMPDEST PUSH1 0x40 MLOAD DUP1 SWAP2 SUB SWAP1 RETURN JUMPDEST DUP1 DUP3 PUSH2 0xF6 SWAP2 SWAP1 PUSH2 0x262 JUMP JUMPDEST PUSH1 0x0 DUP2 SWAP1 SSTORE POP POP POP JUMP JUMPDEST PUSH1 0x0 DUP2 GT PUSH2 0x143 JUMPI PUSH1 0x40 MLOAD PUSH32 0x8C379A000000000000000000000000000000000000000000000000000000000 DUP2 MSTORE PUSH1 0x4 ADD PUSH2 0x13A SWAP1 PUSH2 0x33B JUMP JUMPDEST PUSH1 0x40 MLOAD DUP1 SWAP2 SUB SWAP1 REVERT JUMPDEST DUP1 DUP3 PUSH2 0x14F SWAP2 SWAP1 PUSH2 0x38A JUMP JUMPDEST PUSH1 0x0 DUP2 SWAP1 SSTORE POP POP POP JUMP JUMPDEST DUP1 DUP3 PUSH2 0x165 SWAP2 SWAP1 PUSH2 0x3BB JUMP JUMPDEST PUSH1 0x0 DUP2 SWAP1 SSTORE POP POP POP JUMP JUMPDEST DUP1 DUP3 PUSH2 0x17B SWAP2 SWAP1 PUSH2 0x3EF JUMP JUMPDEST PUSH1 0x0 DUP2 SWAP1 SSTORE POP POP POP JUMP JUMPDEST PUSH1 0x0 DUP1 SLOAD SWAP1 POP SWAP1 JUMP JUMPDEST PUSH1 0x0 DUP1 REVERT JUMPDEST PUSH1 0x0 DUP2 SWAP1 POP SWAP2 SWAP1 POP JUMP JUMPDEST PUSH2 0x1A6 DUP2 PUSH2 0x193 JUMP JUMPDEST DUP2 EQ PUSH2 0x1B1 JUMPI PUSH1 0x0 DUP1 REVERT JUMPDEST POP JUMP JUMPDEST PUSH1 0x0 DUP2 CALLDATALOAD SWAP1 POP PUSH2 0x1C3 DUP2 PUSH2 0x19D JUMP JUMPDEST SWAP3 SWAP2 POP POP JUMP JUMPDEST PUSH1 0x0 DUP1 PUSH1 0x40 DUP4 DUP6 SUB SLT ISZERO PUSH2 0x1E0 JUMPI PUSH2 0x1DF PUSH2 0x18E JUMP JUMPDEST JUMPDEST PUSH1 0x0 PUSH2 0x1EE DUP6 DUP3 DUP7 ADD PUSH2 0x1B4 JUMP JUMPDEST SWAP3 POP POP PUSH1 0x20 PUSH2 0x1FF DUP6 DUP3 DUP7 ADD PUSH2 0x1B4 JUMP JUMPDEST SWAP2 POP POP SWAP3 POP SWAP3 SWAP1 POP JUMP JUMPDEST PUSH2 0x212 DUP2 PUSH2 0x193 JUMP JUMPDEST DUP3 MSTORE POP POP JUMP JUMPDEST PUSH1 0x0 PUSH1 0x20 DUP3 ADD SWAP1 POP PUSH2 0x22D PUSH1 0x0 DUP4 ADD DUP5 PUSH2 0x209 JUMP JUMPDEST SWAP3 SWAP2 POP POP JUMP JUMPDEST PUSH32 0x4E487B7100000000000000000000000000000000000000000000000000000000 PUSH1 0x0 MSTORE PUSH1 0x11 PUSH1 0x4 MSTORE PUSH1 0x24 PUSH1 0x0 REVERT JUMPDEST PUSH1 0x0 PUSH2 0x26D DUP3 PUSH2 0x193 JUMP JUMPDEST SWAP2 POP PUSH2 0x278 DUP4 PUSH2 0x193 JUMP JUMPDEST SWAP3 POP DUP3 PUSH32 0xFFFFFFFFFFFFFFFFFFFFFFFFFFFFFFFFFFFFFFFFFFFFFFFFFFFFFFFFFFFFFFFF SUB DUP3 GT ISZERO PUSH2 0x2AD JUMPI PUSH2 0x2AC PUSH2 0x233 JUMP JUMPDEST JUMPDEST DUP3 DUP3 ADD SWAP1 POP SWAP3 SWAP2 POP POP JUMP JUMPDEST PUSH1 0x0 DUP3 DUP3 MSTORE PUSH1 0x20 DUP3 ADD SWAP1 POP SWAP3 SWAP2 POP POP JUMP JUMPDEST PUSH32 0x546865207365636F6E6420706172616D657465722073686F756C64206265206C PUSH1 0x0 DUP3 ADD MSTORE PUSH32 0x6172676572207468616E20300000000000000000000000000000000000000000 PUSH1 0x20 DUP3 ADD MSTORE POP JUMP JUMPDEST PUSH1 0x0 PUSH2 0x325 PUSH1 0x2C DUP4 PUSH2 0x2B8 JUMP JUMPDEST SWAP2 POP PUSH2 0x330 DUP3 PUSH2 0x2C9 JUMP JUMPDEST PUSH1 0x40 DUP3 ADD SWAP1 POP SWAP2 SWAP1 POP JUMP JUMPDEST PUSH1 0x0 PUSH1 0x20 DUP3 ADD SWAP1 POP DUP2 DUP2 SUB PUSH1 0x0 DUP4 ADD MSTORE PUSH2 0x354 DUP2 PUSH2 0x318 JUMP JUMPDEST SWAP1 POP SWAP2 SWAP1 POP JUMP JUMPDEST PUSH32 0x4E487B7100000000000000000000000000000000000000000000000000000000 PUSH1 0x0 MSTORE PUSH1 0x12 PUSH1 0x4 MSTORE PUSH1 0x24 PUSH1 0x0 REVERT JUMPDEST PUSH1 0x0 PUSH2 0x395 DUP3 PUSH2 0x193 JUMP JUMPDEST SWAP2 POP PUSH2 0x3A0 DUP4 PUSH2 0x193 JUMP JUMPDEST SWAP3 POP DUP3 PUSH2 0x3B0 JUMPI PUSH2 0x3AF PUSH2 0x35B JUMP JUMPDEST JUMPDEST DUP3 DUP3 DIV SWAP1 POP SWAP3 SWAP2 POP POP JUMP JUMPDEST PUSH1 0x0 PUSH2 0x3C6 DUP3 PUSH2 0x193 JUMP JUMPDEST SWAP2 POP PUSH2 0x3D1 DUP4 PUSH2 0x193 JUMP JUMPDEST SWAP3 POP DUP3 DUP3 LT ISZERO PUSH2 0x3E4 JUMPI PUSH2 0x3E3 PUSH2 0x233 JUMP JUMPDEST JUMPDEST DUP3 DUP3 SUB SWAP1 POP SWAP3 SWAP2 POP POP JUMP JUMPDEST PUSH1 0x0 PUSH2 0x3FA DUP3 PUSH2 0x193 JUMP JUMPDEST SWAP2 POP PUSH2 0x405 DUP4 PUSH2 0x193 JUMP JUMPDEST SWAP3 POP DUP2 PUSH32 0xFFFFFFFFFFFFFFFFFFFFFFFFFFFFFFFFFFFFFFFFFFFFFFFFFFFFFFFFFFFFFFFF DIV DUP4 GT DUP3 ISZERO ISZERO AND ISZERO PUSH2 0x43E JUMPI PUSH2 0x43D PUSH2 0x233 JUMP JUMPDEST JUMPDEST DUP3 DUP3 MUL SWAP1 POP SWAP3 SWAP2 POP POP JUMP INVALID LOG2 PUSH5 0x6970667358 0x22 SLT KECCAK256 SHR 0x29 SWAP10 0xD5 DUP5 PUSH1 0x7D PUSH7 0x4000C737F14552 SHR 0xC 0x5E TIMESTAMP 0x25 0x29 0xB3 SUB DUP9 0xB6 0xD3 MSTORE 0x5D PUSH8 0xBE11FA64736F6C63 NUMBER STOP ADDMOD 0xF STOP CALLER "
				},
				"gasEstimates": {
					"creation": {
						"codeDepositCost": "230200",
						"executionCost": "269",
						"totalCost": "230469"
					},
					"external": {
						"add(uint256,uint256)": "infinite",
						"div(uint256,uint256)": "infinite",
						"getResult()": "2503",
						"mul(uint256,uint256)": "infinite",
						"sub(uint256,uint256)": "infinite"
					}
				},
				"methodIdentifiers": {
					"add(uint256,uint256)": "771602f7",
					"div(uint256,uint256)": "a391c15b",
					"getResult()": "de292789",
					"mul(uint256,uint256)": "c8a4ac9c",
					"sub(uint256,uint256)": "b67d77c5"
				}
			},
			"storageLayout": {
				"storage": [
					{
						"astId": 3,
						"contract": "CalculatorContract.sol:Calculator",
						"label": "c",
						"offset": 0,
						"slot": "0",
						"type": "t_uint256"
					}
				],
				"types": {
					"t_uint256": {
						"encoding": "inplace",
						"label": "uint256",
						"numberOfBytes": "32"
					}
				}
			},
			"userdoc": {
				"kind": "user",
				"methods": {},
				"version": 1
			}
		}
	}
}